:020000040800F2
:100000002009002045020008CB2100082F1A000813
:10001000C72100088B1700086F320008000000009D
:10002000000000000000000000000000192400088B
:100030008F17000800000000012300082D2500088C
:100040005F0200085F0200085F0200085F0200080C
:100050005F0200085F0200085F0200085F020008FC
:100060005F0200085F0200085F0200085F020008EC
:100070005F0200085F0200085F0200085F020008DC
:100080005F0200085F0200085F0200085F020008CC
:100090005F0200085F0200085F0200085F020008BC
:1000A0005F0200085F0200085F0200085F020008AC
:1000B0005F0200085F020008792800085F0200085C
:1000C0005F0200085F0200085F0200085F0200088C
:1000D0005F0200084D3000085F0200085F02000860
:1000E0005F0200085F0200085F0200085F0200086C
:1000F0005F0200085F0200085F0200085F0200085C
:100100005F0200085F0200085F0200085F0200084B
:100110005F0200085F0200086D2900085F02000806
:100120005F0200085F0200085F0200085F0200082B
:1001300000F002F800F076F80AA090E8000C824483
:100140008344AAF10107DA4501D100F06BF8AFF260
:10015000090EBAE80F0013F0010F18BFFB1A43F0A5
:100160000103184774950000949500000A444FF06D
:10017000000C10F8013B13F0070408BF10F8014B06
:100180001D1108BF10F8015B641E05D010F8016B4B
:10019000641E01F8016BF9D113F0080F1EBF10F8AF
:1001A000014BAD1C0C1B09D16D1E58BF01F801CBD2
:1001B000FAD505E014F8016B01F8016B6D1EF9D555
:1001C0009142D6D37047000000230024002500266A
:1001D000103A28BF78C1FBD8520728BF30C148BFAA
:1001E0000B607047662908F05682642900F0CC80C5
:1001F000752900F0C980782900F00281632900F098
:100200001985732900F01E85002070471FB500F086
:1002100051FD04000020002107F052F9E0601FBDED
:1002200010B510BD00F08AFE1146FFF7EFFF04F095
:10023000E1FD00F0A8FE03B4FFF7F2FF03BC03F0FA
:100240009CF800000948804709480047FEE7FEE7A0
:10025000FEE7FEE7FEE7FEE7FEE7FEE7FEE7FEE776
:1002600004480549054A064B70470000312500083F
:100270003101000820030020200900202005002073
:1002800020050020704710B54C1084EA530404D5B3
:100290004042C1F1000138BF491E1B4204D5524201
:1002A000C3F1000338BF5B1E00F0D2F914F0804F99
:1002B00004D04042C1F1000138BF491E14F0004F84
:1002C00004D05242C3F1000338BF5B1E10BD0000D2
:1002D0000FB4044910B503AA029800F0B7FC10BC93
:1002E0005DF814FB8400002070B504468569006841
:1002F000C10601D5302600E02026C00707D070BD1A
:10030000D4E9012130469047206A401C20626D1ECE
:10031000F6D570BD70B5044685690078C00707D171
:1003200070BDD4E9012120209047206A401C206242
:100330006D1EF6D570BD70B50C460546012A05D078
:100340002878800600D5EA69002302E0012305E051
:100350005B1C934202D2E05C0028F9D1A869E61840
:10036000C01AA861286A184428622846FFF7BCFF13
:1003700004E0D5E9012114F8010B9047B442F8D309
:100380002846FFF7C7FF70BD2DE9F041064600245F
:1003900010687529314616A510D0AFF300800028EB
:1003A00002DA404213A507E031688A0701D512A599
:1003B00002E0490704D511A5012401E0AFF3008054
:1003C00000210A2206F1240709E0B0FBF2FCB0FB91
:1003D000F2F302FB1C00303078541846491C002808
:1003E000F3D123462A463046BDE8F04100F0B2B9C9
:1003F000000000002D0000002B0000002000000085
:1004000070B504460D4621461068AFF30080218880
:10041000090502D50F4A7A4402E00E4A7A440E32A8
:10042000002104F1240305E000F00F060009965DA9
:100430005E54491C0028F7D120780023000704D51A
:10044000702D02D009B1022311322046BDE8704060
:1004500000F080B9B88F00002DE9F05F89460446AE
:100460004FF0000ADFF874B1FB44C0F820A020462A
:10047000E1688847002874D0252806D0D4E90121F6
:100480009047206A401C2062F1E700265F46204624
:10049000E16888472028054607DB312D05D2781909
:1004A00010F8200C08B10643F1E7B00701D526F09B
:1004B0000406C4F81CA00027C4F818A02A2D09D0EF
:1004C000284602F053FF38B304EB8708303DC8F8E4
:1004D000185019E059F8041B204604EB870291617B
:1004E000E1688847012F054618D1E069002820DA25
:1004F00026F020061DE0D8F8180000EB800005EB80
:1005000040003038C8F818002046E16888470546A2
:1005100002F02CFF0028EED1012F0AD02E2D08D199
:100520002046E16888477F1C0546022F46F02006DA
:10053000C4DBA069002803DA404246F00106A0614E
:10054000F00701D026F010066C2D0BD0682D09D0D5
:100550004C2D39D06A2D35D0742D35D07A2D33D02D
:1005600016E038E0E1682F4620468847B842054645
:1005700009D16C2F26D04FF48060E16806432046F5
:100580008847054604E06C2F1AD04FF4807006436C
:100590000DB3A5F14100192802D8203546F40066B4
:1005A0004A462946204626604E46FFF71BFE80B18C
:1005B00001280BD0F61D26F0070000F1080956E7C8
:1005C0004020E4E78020D8E70020D6E706F10409C0
:1005D0004DE7284652E7206ABDE8F09F8E8F000065
:1005E00040EA010310B59B070FD1042A0DD310C8B0
:1005F00008C9121F9C42F8D020BA19BA884201D902
:10060000012010BD4FF0FF3010BD1AB1D30703D049
:10061000521C07E0002010BD10F8013B11F8014BFF
:100620001B1B07D110F8013B11F8014B1B1B01D11B
:10063000921EF1D1184610BD02F0FF0343EA0322D7
:1006400042EA024200F016BB70477047704770479D
:1006500053EA020C00F069802DE9F04B4FF00006E0
:10066000002B1FBFB3FA83F503FA05F424FA05F64D
:100670005E4012BF1643B2FA82F502FA05F4C5F1E4
:1006800020051EBF22FA05FC44EA0C04203556EA78
:10069000044C4FEA144418BF641C4FF000084FF09C
:1006A0000009904271EB030C39D3002919BFB1FA4C
:1006B00081F701FA07F6B0FA80F700FA07F6C7F1FA
:1006C00020071EBF20FA07FC46EA0C062037B6FBBF
:1006D000F4FCA7EB0507103F07F01F0BCBF120063A
:1006E0000CFA0BFB2CFA06F644BFB3460026202F6B
:1006F000A4BF5E464FF0000B5BEA060C08BF4FF04C
:10070000010B19EB0B09ABFB027C48EB0608C01B85
:1007100006FB02CC0BFB03CC71EB0C01C1E70B46D3
:10072000024641464846BDE8F08B13B54FF0000045
:100730004FF00001AFF30080BDE81C40704710B5DA
:1007400000F0BCFA006810BD10B5044600F0B6FA1F
:10075000046010BD2DE9F0470D46994692460446C7
:1007600000F124080168880604D5E06921F0100131
:10077000216000E00120A84201DD471B00E00027C6
:10078000A1697A1902EB0900081AA0612078C00655
:1007900002D42046FFF7A8FD002608E0D4E9012195
:1007A0001AF806009047206A401C761C20624E45CD
:1007B000F4DB2078C0060AD52046FFF795FD06E059
:1007C000D4E9012130209047206A401C2062381E65
:1007D000A7F10107F4DC07E0D4E9012118F80500CE
:1007E0009047206A401C2062281EA5F10105F3DC19
:1007F0002046FFF78FFD2078000602D50220BDE8D5
:10080000F0870120FBE770472DE9FF4F0C461E469D
:100810004FF0FF378BB0D2E90001DDF860800A901D
:100820008A46C1F30A5505B93D46002108464FF0F6
:100830000000BAF1000F00F4400005DA00EB800080
:100840004FF4400101EA50004FEA9059B9F1010F0D
:1008500000DDB9460A9850EA4A000ED044F610501E
:10086000A5F2FF3545432F14B8F1000F1ED0754295
:10087000291E1EDDC9F100021CE0B8F1010F4FF086
:10088000000001D0302103E0F24305E02154401C78
:10089000B042FBDB30460022002121540B99C1F805
:1008A0000880C1E900200FB0BDE8F08FBD1B6D1CB2
:1008B000DEE74A4600DA694206A800F0A1FA06AB74
:1008C00093E8070003AB83E8070050460A9900F05D
:1008D000A1FB8DE80700A0F500501F380090039899
:1008E000002D09DD42F21F014A46084403A9039086
:1008F000684600F000FE08E0A0F500504A461F38A8
:1009000003A90390684600F00AFE8DE80700000482
:10091000000C03D04FF0FF30410800E01046B8F162
:10092000000F03D00022009215461EE0751E05D46C
:1009300000F0C8F9303262556D1EF9D5B346012278
:10094000084302D000227F1C04E02078302801D127
:1009500000227F1E002A099786D01DE0112D07DA9C
:1009600000F0B0F9303262556D1C50EA0102F5D149
:10097000084302D00098C8B10EE00021681E05E0CF
:10098000235C625C63542254401E491C8142F7DBA5
:10099000AB46A81B401E0990002004F80B000B98E2
:1009A000099AC0F80880C0E9002B7CE711264FF0B7
:1009B000000859E72DE9F04F88460446D21D22F081
:1009C000070191B0D1E90001CDE90A0102F051FC23
:1009D00002460B98C00F01D02D2007E02068810748
:1009E00001D52B2002E0202101EAC000032A099052
:1009F00001D0072A05DB03464146204600F0C0F936
:100A00000BE12078800601D5E06900E00620B8F10E
:100A1000650F814606D0B8F1660F18D0B8F1670FA0
:100A200070D131E00020B9F1110F009001DB1123EA
:100A300001E009F101030AAA01A90CA8FFF7E4FEED
:100A4000DDE90C70002609F10105834647E001202D
:100A50004B4600904FF000470AAA01A90CA8FFF7E7
:100A6000D3FEDDE90DB00C995D46002610B909F101
:100A700001000D18B9EB050003D4C0F1FF3609F1F0
:100A80000105A5EB09002BE0B9F1010F01DA4FF0E8
:100A900001090020B9F1110F0090484601DD112332
:100AA00000E003460AAA01A90CA8FFF7ADFEDDE9A4
:100AB0000C704D4600268346207800070AD4AB45CB
:100AC00000DA5D4601A8012D04DD411911F8011C71
:100AD000302907D04F4502DA17F1040F04DA01205C
:100AE00082460FE06D1EEEE7002F02DCED1B3E4458
:100AF00003E0781CA84200DD7D1CB81B00F1010A50
:100B00004FF000472078000703D4AA4501DB4FF0DF
:100B1000FF3A0021B7F1004F0DF143088DF8431063
:100B200024D002202B23002F01DA7F422D230A211B
:100B3000021EA0F1010000DC5FB197FBF1FC97FB06
:100B4000F1F201FB1C7C17460CF1300C08F801CDCA
:100B5000EEE7A8F1010003702188090501D54521C0
:100B600000E06521A0F1010800F8011C09980FA917
:100B7000A1EB0807FF1D00B10120411901EBEA704C
:100B8000A1693844081A401EA0612078C00602D42A
:100B90002046FFF7A9FB099828B1D4E90121904725
:100BA000206A401C20622078C00622D52046FFF72C
:100BB0009BFB1EE0002E04DBB34502DD01A8805D37
:100BC00000E03020D4E901219047206A401C2062D7
:100BD000761CAAF101005FEA000A0AD100F06AF867
:100BE000C0680168405CD4E901219047206A401C3C
:100BF0002062281EA5F10105DCDC07E0D4E9012113
:100C000018F8010B9047206A401C2062381EA7F19B
:100C10000107F3DC2046FFF77DFB032011B043E61C
:100C200010B5436913B1AFF3008001E0FFF783FB18
:100C3000012010BD127800F124010A7000224A70D0
:100C40000122EDE711684FF0FF32E9E7074B70B57D
:100C50000D467B4400F081F80446284600F03EF93A
:100C600010B14FF0FF3070BD204670BDD73A000084
:100C70004FF000020429C0F0128010F0030C00F0C5
:100C80003381CCF1040CBCF1020F18BF00F8012B2A
:100C9000A8BF20F8022BA1EB0C0100F025B95FEAF8
:100CA000C17C24BF00F8012B00F8012B48BF00F8DD
:100CB000012B704700487047E00200200048704751
:100CC000C002002030B5B0F10A024FEA900E71F177
:100CD00000034EEA817EB0EB0E0061EB91014FEA1A
:100CE000101E4EEA017E10EB0E0041EB11114FEA8F
:100CF000102E4EEA016E10EB0E0041EB11214FEA6F
:100D0000104E4EEA014E10EB0E0041EB114140181F
:100D100041F100014FEAD00040EA41704FEAD101B1
:100D200010EB80054FEA810444EA907444EB01041F
:100D30006D1944EB0404521BA3414FF0000348BF5C
:100D40000A3200D530BD401C41F1000130BD000029
:100D500001694A1C02610878704700B58FB0CDE97F
:100D600001310021059105497944CDE9031011466F
:100D70006846FFF771FB0FB000BD0000E5FFFFFF05
:100D80002DE9F0411F46044603260168072A01F4B5
:100D9000006004DB08B116A505E016A503E008B164
:100DA00015A500E015A521F010002060A069C01E67
:100DB000A0610FB1401EA0612046FFF795FA4FB128
:100DC000D4E9012138469047206A401C2062C01CAB
:100DD000206206E0206AFAE7D4E9012115F8010B48
:100DE0009047761EF8D22046FFF794FABDE8F081CE
:100DF0004E414E006E616E00494E4600696E6600BF
:100E00002DE9F047814616468AB0334878440DC82C
:100E10008DE80D0030487844801C03AC0DC884E890
:100E20000D0041F69B300844372190FBF1F290FB16
:100E3000F1F5A5F1800501FB12041B3C02D56442CB
:100E4000012000E00020DFF890A080460027FA444F
:100E5000AAF1BE0A0DE0E00709D03246684607EB6A
:100E600047010AEB810100F05AFB8DE8070064108E
:100E70007F1C002CEFD1184F7F44AC3F18E0E807EF
:100E800014D007EB04100DF1180A90E80E008AE860
:100E90000E00C068F04201D198190890324606A9A8
:100EA00003A800F03CFB03AB83E807006D10641C53
:100EB000002DE4D132466946B8F1000F03A802D0F4
:100EC00000F019FB01E000F02AFBC9E90001C9F8B4
:100ED00008200AB0BDE8F0876C870000007B00F0B6
:100EE000800070474FF0000200B5134694469646C6
:100EF000203922BFA0E80C50A0E80C50B1F120012D
:100F0000BFF4F7AF090728BFA0E80C5048BF0CC0DA
:100F10005DF804EB890028BF40F8042B08BF704738
:100F200048BF20F8022B11F0804F18BF00F8012BAA
:100F30007047000000487047C00200207546FFF768
:100F4000F9FFAE4605006946534620F00700854686
:100F500018B020B5FFF784F9BDE820404FF0000637
:100F60004FF000074FF000084FF0000B21F0070191
:100F7000AC46ACE8C009ACE8C009ACE8C009ACE8D4
:100F8000C0098D4670470446AFF300802046FFF746
:100F900052F900004FF0013C50F8042B51F8043B8B
:100FA0009A4221D1A2EB0C03934313EACC1317D13D
:100FB00050F8042B51F8043B9A4215D1A2EB0C03D4
:100FC000934313EACC130BD150F8042B51F8043B94
:100FD0009A4209D1A2EB0C03934313EACC13DBD062
:100FE0004FF00000704700BFD01A01BAB1FA81F18A
:100FF00001F0180122FA01F0CB40C1F12001DBB26F
:10100000C0B2C01A2CFA01F3D11A914311EAC311EC
:10101000E6D170475FEA400C08BF91F0000F4FEA3D
:101020008C234FEAC12243EA51514FEA1C5018BFAA
:1010300000F5F0404FEA300018BF41F000415FEA90
:101040006C5C00F02980BCF1FF3F08BF40F080409D
:101050007047130C06BF12044FF0100C4FF0000C39
:10106000130E04BF12020CF1080C130F04BF12017F
:101070000CF1040C930F04BF92000CF1020CD30F7F
:1010800004BF52000CF1010C11464FF00002A0F118
:101090001F00A0EB0C00704711F0004F08BF704715
:1010A00031F000413FF4D5AF0B0C06BF09044FF0FF
:1010B000100C4FF0000C0B0E04BF09020CF1080CD1
:1010C0000B0F04BF09010CF1040C8B0F04BF890046
:1010D0000CF1020CCB0F04BF49000CF1010CCCF158
:1010E0002003A0EB0C0022FA03F302FA0CF241EA0F
:1010F000030100F10100704720F07F4C80EA0300FB
:1011000023F07F47ACEB070303F57C5300F000406E
:1011100003F1FF032DE980494FEA154B09B44FEA6B
:10112000144325EA0B4E24EA03480FF2042606EB8B
:10113000132749083E785FEA320203FB0667C7F5CA
:10114000000707FB06F64FEA54374FEAD64606F18A
:10115000020607FB066CCCF1005C4FEA1C472CEA48
:10116000074C07FB06F40CFB06F504EB15464FEAAB
:10117000961634BF00204FF000404FEAD13706FBEF
:1011800007FC4FEA1C4C0CFB0BF7D21B03FB0CF7C4
:1011900061EB07010CFB0EF7B0EB074072EB174257
:1011A0000CFB08F734BFA2EB0742B2EB074261EB3E
:1011B00017414FEA0C444FEA910706FB07FC4FEA40
:1011C0001C4C0CFB0BF7B0EBC74072EB573203FB28
:1011D0000CF734BFA2EBC742B2EBC74261EB573109
:1011E0000CFB0EF7B0EBC70072EB57720CFB08F765
:1011F00034BFA2EBC702B2EBC70261EB5771039F8A
:101200004FEA816141EA921104EBCC044FEAD137F5
:101210004FEA826206FB07FC42EA90124FEA8060C6
:101220004FEA1C4C0CFB0BF7D21B03FB0CF761EBDA
:1012300007010CFB0EF7B0EB074072EB17420CFBFB
:1012400008F734BFA2EB0742B2EB074261EB17414C
:101250004FEA8C554FEA910704EB9C2406FB07FCF0
:101260004FEA1C4C0CFB0BF7B0EBC74072EB57324C
:1012700003FB0CF734BFA2EBC742B2EBC74261EBF2
:1012800057310CFB0EF7B0EBC70072EB57720CFB3B
:1012900008F734BFA2EBC702B2EBC70261EB57718C
:1012A00015EB4C254FEA816141EA92114FEA8262C7
:1012B0004FEAD13742EA901206FB07FC44F10004E2
:1012C0004FEA80604FEA1C4C0CFB0BF7D21B03FB70
:1012D0000CF761EB07010CFB0EF7B0EB074072EB6C
:1012E00017420CFB08F734BFA2EB0742B2EB0742F0
:1012F00061EB174115EB1C154FEA813141EA924130
:101300004FEA823242EA90424FEA80304FEA0C764E
:1013100044F1000448EA03434EEA0B484FF0000E44
:10132000B2EB080C71EB030724BF624639464EEB63
:101330000E0E4FF0000B0018524149414BEB0B0BC6
:10134000B2EB080C71EB03077BF1000B24BF624684
:1013500039464EEB0E0E4FF0000B0018524149413A
:101360004BEB0B0BB2EB080C71EB03077BF1000BA3
:1013700024BF624639464EEB0E0E51EA020718BFF3
:1013800046F0010616EB0E7655F1000254F100010D
:1013900003D5BDE88901BDE80088BDE88901BDE845
:1013A0000048B619524141EB0101A3F10103704716
:1013B00080807F7E7D7C7B7A797877767675747392
:1013C000727171706F6E6E6D6C6C6B6A6A69686851
:1013D000676666656464636362616160605F5F5EE7
:1013E0005E5D5D5C5C5B5B5A5A595958585757565D
:1013F00056555555545453535252525151505050C2
:101400004F4F4F4E4E4D4D4D4C4C4C4B4B4B4A4A13
:101410004A49494948484847474747464646454557
:101420004544444444434343434242424241414190
:10143000002B26D4770021D01CB54FEA370703B420
:101440004FF010004FF010014FF000000FBCBDE84E
:1014500010400BF1010BBBF1010F08BF5FEA17074A
:1014600022BF12F1010211F101014FF0004143F1DD
:10147000000300F0004043EA00007047F9D357082A
:10148000DAE746EA064613F1400F4FEA16461FDD3B
:1014900013F1200FDFBF16430A46002120335B42C1
:1014A000C8D0C3F1200746EA064602FA07F74FEA1A
:1014B000164646EA0706C3F1200722FA03F201FAAC
:1014C00007F721FA03F14FF0000342EA0702B1E700
:1014D00046EA020646EA06464FEA164646EA01068C
:1014E000BCBF46EA0646360C4FF000034FF0000240
:1014F0004FF000019EE72DE9C048934630B491E8D3
:10150000380007C831EA400C48BF34EA430C03D521
:10151000FFF7F2FDFFF78CFFF0BCBDE800882DE976
:10152000C048934630B491E8380007C810F0804FA7
:1015300008BF13F0804F03D100F005F8FFF778FFE4
:10154000F0BCBDE8008820F07F4780EA030023F06C
:101550007F4C07EB0C03A3F57C5300F00040A3F194
:10156000FE0392F0000F00F0B38095F0000F00F042
:1015700077802DE901494FEA11404FEA144621EAEC
:10158000004800FB06FC24EA064708FB06F607FBBA
:1015900008F800FB07F718EB06484CEB164C4FEA2F
:1015A000124B18EB07484FEA15464CEB174022EA5E
:1015B0000B4E0BFB06FC25EA06470EFB06F607FB67
:1015C0000EFE0BFB07F71EEB064E4CEB164C4FF0D6
:1015D00000061EEB074E4CEB174B18EB0B0840F1C7
:1015E000000018EB0E0B58EB000840F100008F1ABA
:1015F0004FF000013CBFC943661B14BFB5EB040CA0
:1016000000213CBFC943F61B4FEA17444EEA8E0E39
:1016100027EA04454FEA1C4704FB07622CEA074C03
:1016200005FB07F70CFB05F604FB0CFC16EB074665
:1016300042EB174216EB0C4642EB1C421BEB060634
:1016400058EB0202414146EA9E0601D5BDE80189F8
:10165000B619524141EB0101A3F10103BDE8018933
:101660004FEA14454FEA114724EA054621EA074CA0
:1016700005FB07F406FB07F70CFB06F105FB0CFC6A
:1016800011EB074144EB17444FEA124711EB0C41B1
:1016900044EB1C4422EA074C05FB07F206FB07F764
:1016A0000CFB06F605FB0CFC16EB074642EB17425B
:1016B00016EB0C4642EB1C456A1854F1000148BF7A
:1016C0007047B619524141EB0101A3F10103704784
:1016D00095F0000F37D04FEA11424FEA144721EA44
:1016E000024624EA074C02FB07F106FB07F70CFB56
:1016F00006F402FB0CFC14EB074441EB17414FEAE4
:10170000154714EB0C4441EB1C4125EA074C02FB46
:1017100007F506FB07F70CFB06F602FB0CFC16EBC5
:10172000074645EB174516EB0C4645EB1C421219D4
:1017300051F1000148BF7047B619524141EB010118
:10174000A3F1010370474FEA14454FEA114724EA19
:10175000054621EA074C05FB07F106FB07F70CFBE2
:1017600006F24FF0000605FB0CFC12EB074241EBC2
:10177000174112EB0C4251EB1C4148BF70479218C5
:1017800041EB0101A3F10103704700BFFEE7704781
:1017900030B587B005460C460121042000F0C2FD9B
:1017A0000121022000F0AEFD0121084600F0BAFD43
:1017B00001212C4800F0E8F8C020ADF8000003201B
:1017C0008DF8020004208DF803006946264800F0D9
:1017D0004FF804A801F002FCADF81450ADF8104029
:1017E0000020ADF81600ADF8120004A91F4801F062
:1017F000A3FB00231A4603211C4801F069F901A844
:1018000001F0FAF90020ADF804000120ADF808005D
:101810000A20ADF80C0001A9144801F097F901A8BD
:1018200001F0EAF90420ADF804000120ADF8080049
:101830000A20ADF80C0001A90C4801F087F901213C
:101840000A4801F033F90021084801F046FB002066
:101850000649243108800121044801F02DF907B020
:1018600030BD0000000230000008014000040040CC
:101870002DE9F04102460025002600200023002427
:10188000002791F803C00CF00F0591F803C00CF08D
:10189000100CBCF1000F03D091F802C04CEA050512
:1018A00091F800C0BCF1000F31D0146800202BE08B
:1018B0004FF0010C0CFA00F3B1F800C00CEA03067B
:1018C0009E4220D183004FF00F0C0CFA03F7BC436B
:1018D00005FA03FC4CEA040491F803C0BCF1280F9C
:1018E00006D14FF0010C0CFA00FCC2F814C00AE05B
:1018F00091F803C0BCF1480F05D14FF0010C0CFA70
:1019000000FCC2F810C0401C0828D1D31460B1F804
:1019100000C0BCF1FF0F34DD546800202EE000F160
:10192000080C4FF0010808FA0CF3B1F800C00CEAFB
:1019300003069E4221D183004FF00F0C0CFA03F7EF
:10194000BC4305FA03FC4CEA040491F803C0BCF163
:10195000280F05D100F1080C08FA0CF8C2F8148021
:1019600091F803C0BCF1480F07D100F1080C4FF00B
:10197000010808FA0CF8C2F81080401C0828CED3E1
:101980005460BDE8F0810000F0B50A460023002451
:101990000021002500F00046B6F1004F02D11D4E97
:1019A000F16901E01B4E7168C0F3034583B200F496
:1019B0004016B6F5401F08D121F07061154E7668CB
:1019C00026F07066134F7E6012E000F48016B6F5C4
:1019D000801F06D1032606FA05F4A14341F0706189
:1019E00006E0460D360103FA06F6B14341F0706198
:1019F00022B1460D360103FA06F6314300F00046E7
:101A0000B6F1004F02D1034EF16101E0014E716069
:101A1000F0BD0000000001400246002093680B402A
:101A20000BB1012000E0002070470161704700BF4A
:101A3000FEE7000008B50121442000F073FC1C20E3
:101A4000ADF8000048208DF8030069460648FFF70E
:101A50000FFF0120ADF8000028208DF80300694633
:101A60000248FFF705FF08BD0018014000080140CB
:101A700010B5044614B101202C4908702B48007899
:101A8000002837D010212A48FFF7C6FF78B1082177
:101A90002748FFF7C1FF50B104212548FFF7BCFFDD
:101AA00028B101212348FFF7B7FF012822D10A20DE
:101AB00002F016F800201D49087010211C48FFF79D
:101AC000ABFF08B9012010BD08211948FFF7A4FF9A
:101AD00008B90220F7E704211548FFF79DFF08B970
:101AE0000320F0E701211348FFF796FF01281BD1DF
:101AF0000420E8E710210E48FFF78EFF012813D1DC
:101B000008210B48FFF788FF01280DD10421084860
:101B1000FFF782FF012807D101210648FFF77CFF6C
:101B200010B90120014908700020CCE71400002002
:101B3000001801400008014008B50121482000F0CC
:101B4000F1FB2020ADF8000010208DF803000320E9
:101B50008DF8020069460948FFF78AFE20210748F0
:101B6000FFF763FF2020ADF8000069460448FFF747
:101B70007FFE20210248FFF758FF08BD000C0140FE
:101B8000001801402DE9FC4104460D4616466B46FF
:101B900006223B21682000F040FA0746BFB99DF8B5
:101BA00001009DF8001040EA012000B220809DF85D
:101BB00003009DF8021040EA012000B228809DF841
:101BC00005009DF8041040EA012000B2308038463C
:101BD000BDE8FC812DE9FC4104460D4616466B46E6
:101BE00006224321682000F018FA0746BFB99DF885
:101BF00001009DF8001040EA012000B220809DF80D
:101C000003009DF8021040EA012000B228809DF8F0
:101C100005009DF8041040EA012000B230803846EB
:101C2000BDE8FC812DE9F84F6B4602224121682076
:101C300000F0F3F99DF801009DF8001040EA012042
:101C40000FFA80FA504605F08BFE804600220B4BBF
:101C500005F02EFD06460A4A0A4B05F079FC0446BB
:101C600005F044FC83460849584606F097FB0446B5
:101C700006F0F8FA00B2BDE8F88F000000407540A9
:101C8000A4703D0AD74342400000C84210B500206E
:101C90000E4908600E48006820F070400C4908604A
:101CA0000846006840F04050086000200949C1F82B
:101CB0009C0100F011F801200449086000F00CF8C4
:101CC00000200449C1F8980110BD0000988121420C
:101CD000000C01400080214210B5022001F026FFD7
:101CE00010BD000008B50121082000F01BFBC0203A
:101CF000ADF8000010208DF8030003208DF80200DD
:101D000069460448FFF7B4FDC0210248FFF78DFE85
:101D100008BD0000000C014010B500200E4908600D
:101D20000E48006820F070400C49086008460068C2
:101D300040F04050086001200949C1F89C01FFF7BC
:101D4000CBFF012004490860FFF7C6FF00200449CB
:101D5000C1F8980110BD000098812142000C01409B
:101D60000080214270B5054600241648006820F026
:101D70007040144908600846006840F00040086060
:101D8000002614E0002010490860FFF7A5FF01209D
:101D90000E49C1F898016006040E0B487C380068B3
:101DA00008B1601CC4B2FFF797FF701CC6B2082EC2
:101DB000E8DB15B9FFF7B0FF01E0FFF767FF20464A
:101DC00070BD0000000C014098812142008021423A
:101DD00070B504461248006820F070401049086051
:101DE0000846006840F04050086000200D49086037
:101DF000002512E0E0090B49091D08606006040E89
:101E000001200949C1F89801FFF766FF0020054944
:101E10000860FFF761FF681CC5B2082DEADB70BDE2
:101E2000000C0140988121420080214210B50E48EB
:101E3000006820F070400C4908600846006840F0D7
:101E4000405008600120094908600949C1F898011B
:101E5000FFF742FF002005490860FFF73DFF002023
:101E60000349C1F8980110BD000C01409C8121423A
:101E70000080214210B50E48006820F070400C49E7
:101E800008600846006840F040500860002009499A
:101E900008600949C1F89C01FFF71EFF01200549B0
:101EA00008600549C1F89C01FFF716FF10BD00004E
:101EB000000C0140988121420080214210B500248D
:101EC0001448006820F07040124908600846006815
:101ED00040F00040086001200F490860FFF7FCFE59
:101EE00001200E49C1F89801FFF7F6FE07E0601CDB
:101EF000C4B2FA2C03DDFFF7BDFF012010BD064878
:101F0000803800680028F2D10349091F086000BF2B
:101F1000F4E70000000C01409C8121420080214236
:101F200038B50121084600F0FDF90121042000F038
:101F3000F9F94FF40040ADF8000010208DF80300CF
:101F400003208DF8020069462248FFF791FC012129
:101F50002148FFF719FD002020490860FFF7C2FE65
:101F600080216B2000F0DDF8642001F0B9FD002134
:101F70006B2000F0D6F8032000F091F8002000F06C
:101F800086F8322000F0B0F80021382000F0C9F8BF
:101F900000216A2000F0C5F80021232000F0C1F8DC
:101FA0008021372000F0BDF8752000F019F80446B4
:101FB000682C0BD101216B2000F0B3F800216C20BC
:101FC00000F0AFF8322000F08FF801E0012038BDBA
:101FD0000020FCE70008014000023000BC01214263
:101FE00070B50446FFF722FFD020FFF7F1FEFFF7A0
:101FF00065FF2046FFF7ECFEFFF760FFFFF716FFD7
:10200000D120FFF7E5FEFFF759FF0020FFF7AAFEFA
:102010000546FFF72FFF284670BD2DE9F041064623
:102020000F4614461D46FFF701FF002141EA460115
:10203000C8B2FFF7CDFEFFF741FF20B1FFF71AFF4F
:102040000120BDE8F0813846FFF7C2FEFFF736FFFA
:10205000FFF7ECFE012101EB4601C8B2FFF7B8FE25
:10206000FFF72CFF0DE0012C04D10020FFF77AFED2
:10207000287003E00120FFF775FE2870601EC4B2CF
:102080006D1C002CEFD1FFF7F5FE0020D9E710B54D
:102090000446E006010E1C2000F043F810BD10B508
:1020A0000446E006010E1B2000F03BF810BD70B5A1
:1020B00004460025BC2C01DB012510E0622C01DB6D
:1020C00002250CE02A2C01DB032508E0142C01DB9F
:1020D000042504E00A2C01DB052500E0062529463D
:1020E0001A2000F01EF870BD70B50446B4F57A7F72
:1020F00001DD4FF47A74042C00DA04244FF47A7072
:1021000090FBF4F0401EC5B22946192000F009F8F2
:102110000546264604EBD671C1F34F00FFF7C7FF13
:1021200070BD70B505460C46FFF780FED020FFF766
:102130004FFEFFF7C3FE18B1FFF79CFE012070BDF4
:102140002846FFF745FEFFF7B9FE2046FFF740FEA1
:10215000FFF7B4FE18B1FFF78DFE0120EFE7FFF7A0
:1021600089FE0020EBE72DE9F04105460E461746B3
:102170009846FFF75BFE002141EA4501C8B2FFF730
:1021800027FEFFF79BFE20B1FFF774FE0120BDE89C
:10219000F0813046FFF71CFEFFF790FE00240CE0B4
:1021A00018F80400FFF714FEFFF788FE18B1FFF7D8
:1021B00061FE0120EBE7601CC4B2BC42F0DBFFF71C
:1021C00059FE0020E3E700BFFEE7704770B500212D
:1021D00000230F22C47804B3154C246804F4E0648F
:1021E000C4F5E064210AC1F10403CA40447804FA4A
:1021F00003F184781440214309010E4C0678A1555F
:10220000047804F01F050124AC4005786D11AD0081
:1022100005F1E025C5F8004109E0047804F01F0548
:102220000124AC40044D0678761145F8264070BD77
:102230000CED00E000E400E080E100E00249014331
:10224000024A1160704700000000FA050CED00E042
:102250002DE9F047044628480168204606F09BF91E
:10226000264988600A465168906806F09FF923491C
:10227000886108468068C861084641684FF0804020
:1022800006F08CF807461D488168384606F083F949
:1022900006461A480168304605F080FE1749086274
:1022A0000A46116A506906F079F80746134AD1695F
:1022B000106906F073F88046104A9169D06806F0FC
:1022C0006DF88146414605F069FE0646394605F03F
:1022D00065FE05460949486A294605F05FFE07493B
:1022E00048620846406808600846806848600846BA
:1022F000406ABDE8F0870000500000205400002034
:102300007047000029B1064AD2690243044BDA61E2
:1023100004E0034AD2698243014BDA61704700004E
:102320000010024029B1064A92690243044B9A61A7
:1023300004E0034A92698243014B9A6170470000AE
:102340000010024030B500210022002400232D4D52
:102350006D6805F00C0121B1042905D0082923D1AD
:1023600005E0294D056022E0274D05601FE0254D61
:102370006D6805F47012234D6D6805F480340225F4
:1023800005EB92421CB9214D554305600BE01D4DF4
:102390006D6805F400351DB11C4D5543056002E024
:1023A000194D5543056002E0174D056000BF00BFA1
:1023B000144D6D6805F0F0010909154D6B5C056859
:1023C000DD4045600F4D6D6805F4E061090A104D70
:1023D0006B5C4568DD4085600A4D6D6805F46051B1
:1023E000C90A0B4D6B5C4568DD40C560054D6D68E5
:1023F00005F44041890B074D6B5CC568B5FBF3F5EF
:10240000056130BD0010024000127A0000093D0055
:102410008A0000209A000020704710B500F002F8F2
:1024200010BD00000CB500200190009033480068FA
:1024300040F480303149086000BF3048006800F443
:10244000003000900198401C0190009818B9019844
:10245000B0F5A06FF1D12948006800F4003010B148
:102460000120009001E0002000900098012843D155
:102470002348006840F010002149086008460068C1
:1024800020F0030008600846006840F00200086081
:102490001A4840681949486008464068486008463C
:1024A000406840F4806048600846406820F47C1032
:1024B00048600846406840F4E810486008460068F4
:1024C00040F08070086000BF0C48006800F00070A9
:1024D0000028F9D00948406820F003000749486007
:1024E0000846406840F00200486000BF034840686A
:1024F00000F00C000828F9D10CBD000000100240CB
:1025000000200240042808D14FF0E021096941F081
:1025100004014FF0E022116107E04FF0E02109696A
:1025200021F004014FF0E022116170477047000074
:1025300010B51348006840F00100114908600846D2
:102540004068104908400E494860084600680E4936
:1025500008400B4908600846006820F480200860A5
:102560000846406820F4FE0048604FF41F00886071
:10257000FFF753FF4FF000600449086010BD0000F2
:10258000001002400000FFF8FFFFF6FE08ED00E03B
:10259000F0B50C46154600220021068C4FF6FE775A
:1025A0003E400684028B018C4FF60C7632407E1C36
:1025B00006EA03162E433243104EB0420ED0104EA0
:1025C000B0420BD0B0F1804F08D00E4EB04205D0D3
:1025D0000D4EB04202D00D4EB04206D14FF6FD7600
:1025E000314044F00106314305E04FF6F5763140C5
:1025F00044F00106314302830184F0BD002C014008
:10260000003401400004004000080040000C00407D
:10261000F0B50C461546002200210026078C4FF627
:10262000EF7C07EA0C070784028B018C4FF6FF77DB
:1026300007EA041640F6FF473A404FF6FF7707EAED
:1026400003373A434FF6FF7707EA05273A43114F1E
:10265000B8420ED0104FB8420BD0B0F1804F08D026
:102660000E4FB84205D00E4FB84202D00D4FB842BF
:1026700006D14FF6DF77394046F01007394305E0C1
:102680004FF65F77394044F01007394302830184E5
:10269000F0BD0000002C0140003401400004004067
:1026A00000080040000C0040F0B50C461546002222
:1026B00000210026078C4FF6FF6C07EA0C07078401
:1026C000828B018C4FF6FF7707EA04264FF60C77D2
:1026D0003A404FF6FF7707EA03172F433A43114F6B
:1026E000B8420ED0104FB8420BD0B0F1804F08D096
:1026F0000E4FB84205D00E4FB84202D00D4FB8422F
:1027000006D14FF6FF57394046F48077394305E04C
:102710004FF2FF57394044F4807739438283018474
:10272000F0BD0000002C01400034014000040040D6
:1027300000080040000C0040F0B50C461546002291
:1027400000210026078C4EF6FF7C07EA0C07078461
:10275000828B018C4FF6FF7707EA043640F6FF477D
:102760003A404FF6FF7707EA05273A434FF6FF77DF
:1027700007EA03373A43114FB8420ED0104FB84220
:102780000BD0B0F1804F08D00E4FB84205D00E4F9D
:10279000B84202D00D4FB84206D14DF6FF7739400E
:1027A00046F48057394305E047F6FF57394044F473
:1027B0008057394382830184F0BD0000002C014022
:1027C000003401400004004000080040000C0040BC
:1027D00030B589B005460C4601210420FFF7A2FD63
:1027E00001210846FFF78EFD0320ADF820001820D8
:1027F0008DF8230003208DF8220008A91D48FFF75B
:1028000037F8ADF81850ADF814400020ADF81600B8
:10281000ADF81A0005A94FF0804000F08DFB602054
:10282000ADF804000020ADF80C000120ADF8060062
:102830000020ADF80A0001A94FF0804000F0EEF949
:1028400001A94FF0804000F03FFA00214FF0804096
:1028500000F030FA00214FF0804000F087FA0121AB
:10286000880700F017F90121880700F025F909B061
:1028700030BD00000008014010B501210A4800F0F9
:1028800054F901280AD109490869804700210648FE
:1028900000F023FB6421044800F01BFB01210248E7
:1028A00000F007F910BD000000080040F40000200F
:1028B00030B589B005460C4601210420FFF722FD02
:1028C00001212120FFF72EFD01210803FFF75CF80D
:1028D0004FF47040ADF8200018208DF8230003203D
:1028E0008DF8220008A91F48FEF7C2FFADF8185066
:1028F000ADF814400020ADF81A00ADF8160005A997
:10290000194800F019FB6020ADF804000120ADF873
:1029100006000020ADF80C0001A9134800F07EF974
:1029200001A9114800F0D0F901A90F4800F02CFAD4
:1029300001A90D4800F082FA08210B4800F0BAF90D
:102940000821094800F012FA0821074800F06CFA43
:102950000821054800F0B0FA0121034800F0ACF866
:1029600009B030BD00140140000800402DE9FE4FC1
:102970000121254800F0D9F8002842D023490888D1
:1029800005F0C4FC019005F0DDFA80460022204BE2
:1029900004F08EFE064600221E4B04F0F9FF0446AA
:1029A0001D4A1E4B04F084FE824604F09FFD0290F7
:1029B0000298FFF74DFC044605F054FC18490860E6
:1029C0001848006808B9012000E000201549086097
:1029D0001548006805F0B6FA04460D46029805F061
:1029E000B1FA064632460B4610A0CDE90045FDF788
:1029F0006FFC0020054908800121034800F059F8C8
:102A000000BFBDE8FE8F000000100040240400401D
:102A100000E0B040000034407B14AE47E17A943FC0
:102A20007C000020940123425000002025662C25C4
:102A3000660D0A007FB505460C4601211020FFF700
:102A400061FCADF80850ADF804400020ADF80A0074
:102A5000ADF8060001A90E4800F06EFA01221146F9
:102A60000B4800F0D2F836208DF8000000208DF8D9
:102A7000010003208DF8020001208DF80300684654
:102A8000FFF7A4FB0121024800F016F87FBD00000B
:102A90000010004021B1028842F08002028004E070
:102AA00002884FF67F731A4002807047CA43028241
:102AB0007047CA430282704721B1028842F0010286
:102AC000028004E002884FF6FE731A4002807047CD
:102AD000F0B50C4615461E46002100220023018950
:102AE000028B038C4FF6F877394021434FF6FC47B1
:102AF0003A4040F201173A434FF6DD773B404FF63C
:102B0000FF7707EA06172F433B43018102830384C3
:102B1000F0BD0146888C704702460020138A0B40A6
:102B20000BB1012000E00020704730B502460020C4
:102B300000230024158A05EA0103958905EA0104AA
:102B400013B10CB1012000E0002030BD70B5054686
:102B50000C46244885420ED0234885420BD0B5F15F
:102B6000804F08D02148854205D02148854202D0B7
:102B70002048854200D100E000BF208850B9238959
:102B8000A28861882846FFF703FDE188284600F007
:102B9000A6F925E0208804280AD12389A288618823
:102BA0002846FFF735FDE188284600F0A1F917E037
:102BB000208808280AD12389A28861882846FFF73F
:102BC00073FDE188284600F0A0F909E02389A28876
:102BD00061882846FFF7B0FDE188284600F09EF99D
:102BE00070BD0000002C0140003401400004004092
:102BF00000080040000C00400021018041800121BC
:102C000081800021C180018170471AB183890B4303
:102C1000838102E083898B438381704770B50024F0
:102C200000220023058C4FF6FE7635400584028C89
:102C30008388048B4FF68F752C40B51E2C400D8871
:102C40002C43751E2A400D892A434D882A43144D72
:102C5000A8420BD0134DA84208D0134DA84205D06E
:102C6000124DA84202D0124DA84213D14FF6F7756B
:102C70002A404D892A434FF6FB752A408D882A4306
:102C80004FF6FF652B404FF6FF552B408D892B43A8
:102C9000CD892B4383800483CD888586028470BDD3
:102CA000002C01400034014000400140004401403C
:102CB000004801400A460021018B4FF6F773194086
:102CC000114301837047000070B5002400220023E7
:102CD000058C4FF6EF7635400584028C8388048B93
:102CE00048F6FF752C404FF6FF452C400D884FF6F7
:102CF000FF7606EA05252C434FF6DF752A400D893D
:102D000006EA05152A434D8806EA05152A43154D9E
:102D1000A84202D0144DA8421DD14FF67F752A401B
:102D20004D894FF6FF7606EA05152A434FF6BF7523
:102D30002A408D8806EA05152A434FF6FF352B40B9
:102D40004FF2FF752B408D8906EA85052B43CD890F
:102D500006EA85052B4383800483CD88058702849A
:102D600070BD0000002C0140003401400A460021E3
:102D7000018B4FF2FF7319404FF6FF7303EA0223F2
:102D8000194301837047000070B50024002200231E
:102D9000058C4FF6FF6635400584028C8388848B52
:102DA0004FF68F752C404FF6FC752C400D882C4348
:102DB0004FF6FF552A400D894FF6FF7606EA0525A6
:102DC0002A434D8806EA05252A43154DA84202D01C
:102DD000144DA8421DD14FF2FF752A404D894FF680
:102DE000FF7606EA05252A434FF6FF352A408D88EF
:102DF00006EA05252A434EF6FF752B404DF6FF7572
:102E00002B408D8906EA05152B43CD8906EA051569
:102E10002B4383808483CD888587028470BD000026
:102E2000002C0140003401400A460021818B4FF6FE
:102E3000F7731940114381837047000070B5002279
:102E400000230024058C4EF6FF7635400584038C64
:102E50008488828B48F6FF752A404FF6FF452A404A
:102E60000D884FF6FF7606EA05252A434DF6FF75D5
:102E70002B400D8906EA05352B434D8806EA0535BA
:102E80002B430B4DA84202D00A4DA84208D14BF665
:102E9000FF752C408D894FF6FF7606EA85152C4389
:102EA00084808283CD88A0F84050038470BD0000E8
:102EB000002C0140003401400A460021818B4FF272
:102EC000FF7319404FF6FF7303EA0223194381830E
:102ED0007047818570478186704781847047028B77
:102EE0004FF6F3731A400283028B0A430283704742
:102EF000028B4FF2FF331A400283028B4FF6FF73AF
:102F000003EA01231A4302837047828B4FF6F3735F
:102F10001A408283828B0A4382837047828B4FF2EE
:102F2000FF331A408283828B4FF6FF7303EA01233B
:102F30001A43828370470000002202881D4B98428A
:102F40000ED01D4B98420BD0B0F1804F08D01B4BD8
:102F5000984205D01A4B984202D01A4B984204D19D
:102F60004FF68F731A404B881A43174B984207D07D
:102F7000164B984204D04FF6FF431A40CB881A43B1
:102F800002808B8883850B8803850A4B98420BD07F
:102F9000094B984208D00E4B984205D00D4B9842F1
:102FA00002D00D4B984201D10B7A03860123838214
:102FB00070470000002C0140003401400004004034
:102FC00000080040000C00400010004000140040C9
:102FD0000040014000440140004801404FF6FF71AD
:102FE000818000210180C180418001727047000012
:102FF0007FB505460C4601210420FFF783F9ADF8A3
:103000000850ADF804400020ADF80A00ADF8060005
:1030100001A90D48FFF790FF012241210A48FFF75F
:10302000F4FD1E208DF8000003208DF801008DF8BE
:10303000020001208DF803006846FFF7C7F8012160
:103040000148FFF739FD7FBD0008004010B540F290
:1030500025511D4800F04AF810B31B4800F002F952
:10306000C4B21A48008800F40040C8B91748008864
:1030700000F4804060B10A2C03D00020134908807E
:1030800020E01248008840F400401049088019E010
:103090000D2C06D10D48008840F480400B49088073
:1030A00010E00A480088C0F30D0009490C54074895
:1030B0000088401C0549088008460088C72801DDB3
:1030C0000020088010BD000000380140880000206A
:1030D000F801002021B1828942F40052828104E08B
:1030E00082894DF6FF731A408281704770B502469F
:1030F000002400230025002040F66A16B14200D1CA
:1031000000BFC1F3421501F01F03012606FA03F3C5
:10311000012D02D19689334006E0022D02D1168A94
:10312000334001E0968A33400C12012606FA04F47B
:103130001688344013B10CB1012000E0002070BDAE
:10314000F0B50346002400260025002040F66A174B
:10315000B94200D100BF1846C1F3421401F01F0666
:10316000012707FA06F5012C01D10C3004E0022CEE
:1031700001D1103000E014301AB107682F43076006
:1031800002E00768AF430760F0BD00002DE9F0479B
:1031900086B005460E460024A24600BFA146002781
:1031A000B08900B100BF2F462C8A4CF6FF70044056
:1031B000F08804432C82AC894EF6F3100440B088AA
:1031C00031890843718908430443AC81AC8A4FF6C6
:1031D000FF400440B0890443AC8201A8FFF7B2F875
:1031E0001F48874202D1DDF810A001E0DDF80CA0F5
:1031F000A88900F4004040B10AEBCA0000EB0A10B5
:1032000031684900B0FBF1F807E00AEBCA0000EBB7
:103210000A1031688900B0FBF1F86420B8FBF0F0C7
:1032200004012009642101FB1089A88900F40040F1
:1032300040B1322000EBC900B0FBF1F000F0070014
:10324000044308E0322000EB09106421B0FBF1F0E8
:1032500000F00F0004432C8106B0BDE8F0870000A9
:103260000038014001468888C0F30800704700BF5D
:10327000FEE7490050EAC12018BF04204A0D18BFDC
:1032800040F0010040F2FF72B2EB515F08BF40F026
:103290000200012808BF052070472DE9F0414F1EAC
:1032A00000EBC7010446D1E9000115461E4637F080
:1032B00006020DD02A46334604F06AFB7F1E04EB5B
:1032C000C703D3E9002304F043F937F00602F1D134
:1032D000022F25D0042F13D0062F18BFBDE8F08190
:1032E0002A46334604F054FBD4E90A2304F030F9AB
:1032F0002A46334604F04CFBD4E9082304F028F9AD
:103300002A46334604F044FBD4E9062304F020F9AE
:103310002A46334604F03CFBD4E9042304F018F9B0
:103320002A46334604F034FBD4E9022304F010F9B2
:103330002A46334604F02CFBD4E90023BDE8F041D3
:1033400004F006B9012205F0DAB904F001B900224F
:1033500013461046114604F0ABB90000024A0020A3
:10336000110705F0CCB9000001FDFFFF30380A2835
:1033700001D2012070470020704700BF7047000055
:103380002DE9FE4F06460F460025684601F0DCF9A0
:10339000002442E056F8240057F82410A0EB010A5C
:1033A000BAF1000F01DB514601E0CAF10001084605
:1033B00004F094FF83464FF08F4104F05DFE804699
:1033C0005DF82400002104F019FF16D05DF82410E8
:1033D000404604F051FE82464FF07E5105F0E6F87B
:1033E000814629F0004A0F48416A504605F0A2F88C
:1033F00012D20120A04005430EE00A48C1694046B0
:1034000004F098FF05D30748016A404605F092F89A
:1034100002D20120A0400543641C032CBADB2846DD
:10342000BDE8FE8FB48700082DE9F04D8D4F21F0E7
:10343000004A86B005460C46BA452ADBAAEB0700CF
:1034400028430AD08848824501DC1AD1CDB106B0A4
:103450002846BDE8F04DFFF775BF844A844B2846E7
:1034600004F096FA07460E46824A834B28462146C8
:1034700004F08EFA06B03A463346BDE8F04D04F04B
:1034800067B80120FDF760F906B0BDE8F04DFFF721
:103490005EBF7A48824542DABAF1795F0BDA284694
:1034A000FFF7E7FE042808BFFFF758FF284606B0DD
:1034B0002146BDE8F08D2A460B46104604F068FA16
:1034C000834602466E480E460B4606217844FFF7B7
:1034D000E4FE5A46334604F05BFA804669488A4661
:1034E0005A46334604217844FFF7D7FE5A463346FE
:1034F00004F04EFA00223B4604F02AF802460B463E
:103500004046514604F0D4F82A46234604F040FAD7
:1035100006B02A462346BDE8F04D04F019B8284607
:1035200024F0004100223D463B4604F02FFB4FF0C3
:10353000FF3205F0E4F80646024653480F460B46B4
:1035400006217844FFF7A9FE32463B4604F020FAF4
:10355000CDE900014D4832463B4604217844FFF74F
:103560009CFE32463B4604F013FA00222B4603F041
:10357000EFFF834602913046394602F0AFFE8046A7
:1035800043480D46504517DCDDE900015A46029BD1
:1035900004F08EF842462B4604F0FAF942462B46D8
:1035A00003F0D6FF012205F0AAF8304A304B04F0B0
:1035B000DFFB304A304B4CE04FF0000A52460B46DE
:1035C000404603F0C5FFCDE9031052462B46104696
:1035D000194604F0DDF932463B4604F0D7FADDE93E
:1035E000033204F065F806460F46DDE900015A464D
:1035F000029B04F05DF88346009101223046394673
:1036000005F07DF8194A1A4B04F0C0FA06460F4639
:1036100001224046294605F072F85A46009B04F004
:10362000B7F932463B4604F0A3FB06460F4601229B
:103630005046294605F063F80E4DDFF858802A46BB
:10364000434604F0A3FA32463B4604F09FFA2A466A
:10365000434604F09BFA002CD8BF81F0004106B02D
:10366000BDE8F08D0000F03F0000F07F075C1433F0
:1036700026A6913C182D4454FB21F93F0000E03F61
:10368000405F0000565F0000CA5E0000E05E000080
:103690003333EF3FFB21E93F2DE9F84F04460D4658
:1036A00021F0004000917349814211DC7249884247
:1036B00001DC06D12CB120462946BDE8F84FFFF7C2
:1036C00041BE6E48002DCCBF6D496E49BDE8F88FF4
:1036D0006D49814211DD6D498142D8BF4FF0FF36FF
:1036E0006DDD20462946FFF7C4FD042808BFFFF71B
:1036F00035FE20462946BDE8F88F6549654F25F01F
:103700000045814233DD6449814219DD002632469D
:103710004FF080432046294603F01AFF80468A4630
:1037200001222046294604F0EAFF00223B4604F02D
:103730001FFB4246534603F0BBFF04460D463EE0E6
:1037400001260022BA463B462046294603F000FFE8
:1037500080460F46002253462046294604F008FBC7
:1037600042463B4603F0A4FF04460D4627E04B4982
:1037700081421BDDDFF828A10226002253462046A5
:10378000294604F005F900223B4603F0E1FE80469D
:103790000F46002253462046294604F0E9FA4246E5
:1037A0003B4603F085FF04460D4608E0032622460B
:1037B0002B4600203B4903F07BFF04460D46224682
:1037C0002B461046194604F0E3F88B468246024623
:1037D0000B4604F0DDF807460246334888460B46A0
:1037E00006217844FFF759FD52465B4604F0D0F8B5
:1037F00082462E488B463A46434605217844FFF7D9
:103800004CFD3A46434604F0C3F802460B46002EF0
:10381000504659460CDA03F09BFE22462B4604F034
:10382000B7F801B022462B46BDE8F04F04F0AEB920
:1038300003F08EFE22462B4604F0AAF81C4A7A4476
:1038400002EBC603D3E9002304F092FA22462B468A
:1038500004F08EFA174A7A4402EBC603D3E9002338
:1038600004F094F9009A002AB8BF81F00041BDE845
:10387000F88F0000000010440000F07F182D445421
:10388000FB21F93FFB21F9BF0000DC3F0000203E97
:103890000000F33F0000F03F0000E63F00800340DF
:1038A0000000F83F0000F0BFE25C0000A05C0000F8
:1038B0003E5C0000065C00002DE9F04D9446CCF122
:1038C000000423F000464CEA0404524F46EAD47444
:1038D0009A46884621F00042BC4206D8454240EA5A
:1038E000050442EAD474BC4204D9BDE8F04D6246F6
:1038F000FFF72BBDAAF14055A5F17F6555EA0C04F1
:103900000BD0022404EAAA74434DDFF810E144EA24
:10391000D87452EA000B04D00CE0BDE8F04DFFF77C
:10392000BBBE002C14BF012CBDE8F08D022C30D0A2
:10393000032C32D056EA0C0B0AD0BE4220D1BA4238
:1039400009D126F0804622F080423346114617E026
:1039500000291ADB25E0DFF8C8B0FB44002C04BFC7
:10396000DBE90001BDE8F08D012C02BFDBE90001BD
:1039700081F00041BDE8F08D022C0AD0032C0CD060
:10398000BA4212D1B8F1000F0BDA23482549BDE83D
:10399000F08D28462449BDE8F08D28467146BDE8E3
:1039A000F08D1D482149BDE8F08D921B12153C2A6F
:1039B000C4BF19481D490EDCBAF1000FBEBF12F199
:1039C0003C0F0020014606DB624603F071FE21F049
:1039D0000041FFF761FE002C08BFBDE8F08D012C0F
:1039E00004BF81F00041BDE8F08D114A114B022C5B
:1039F00007D004F0BDF92A46BDE8F04D0A4B04F0AB
:103A0000B7B904F0B5F92A46BDE8F04D064B04F00D
:103A1000BDB800000000F07F182D4454FB2109C000
:103A20009A5B0000FB21F9BFFB210940FB21F93F14
:103A3000075C143326A6A13C2DE9F0410446E0784A
:103A400000F0C006E07800F03F05607800F001006B
:103A500098B1EF102846E91705EB5171C910A5EB95
:103A6000C101491C01F0FF080B48006820B10A4859
:103A7000414602683846904700BF607800F0080071
:103A800030B10548406818B1B011034A5168884701
:103A90000020BDE8F0810000E801002010B56FF0C3
:103AA0000400FEF72FFD0A4800680A49B0FBF1F058
:103AB000094908700846007800EB4001C1EBC010CE
:103AC0004FF6FF7101EAC0000449088010BD0000F4
:103AD0000000002000127A008000002082000020F8
:103AE0000146114A12884A434FF0E0235A610022EE
:103AF0009A611A46126942F001021A6100BF4FF042
:103B0000E022106900F001021AB100F48032002AAC
:103B1000F5D04FF0E022126922F001024FF0E023CD
:103B20001A6100229A617047820000200146114A02
:103B300012784A434FF0E0235A6100229A611A46F4
:103B4000126942F001021A6100BF4FF0E0221069D1
:103B500000F001021AB100F48032002AF5D04FF0D3
:103B6000E022126922F001024FF0E0231A610022E4
:103B70009A6170478000002038B5044664B1202067
:103B80008DF8000028208DF8010030208DF802000B
:103B900038208DF8030004E0A32204216846FCF7D6
:103BA0004BFD6A46042140F69E2002F0C1FA01F066
:103BB000ABFE38BD3EB5044602208DF80000CA2099
:103BC0008DF80100E3208DF8020009208DF8030034
:103BD0006A460421682002F0ABFAA3208DF80000A9
:103BE00004F0400048B1C0208DF80100C8208DF8D5
:103BF0000200C2208DF8030006E0A3208DF801002A
:103C00008DF802008DF8030004F4C07048B1C420A0
:103C10008DF80400CC208DF80500C6208DF8060034
:103C200006E0A3208DF804008DF805008DF806004D
:103C3000A3208DF807008DF808008DF809006A466A
:103C40000A2140F6A72002F073FA04F0030018B12D
:103C500020208DF8000002E0D8208DF800006A4690
:103C6000012140F6B62002F063FA04F0200018B1FA
:103C7000012000F0ADF802E0002000F0A9F804F403
:103C8000C07008B304F4807060B1B2208DF80000F9
:103C90008B208DF80100B6208DF802009B208DF856
:103CA00003000BE0B0208DF8000080208DF80100AB
:103CB000B4208DF8020090208DF803006A4604219C
:103CC00040F6A22002F034FA04F0010020B3F820FC
:103CD0008DF800006A4601214FF40B6002F028FACB
:103CE000FA21072000F02CFC072000F0F3FB012054
:103CF00000F013FC642000F0F3FC4FF4FA7000F0C5
:103D000002FDC821304800F0A3FB282000F0BCFBD6
:103D10000A2000F0CCFB08E0D8208DF800006A46AD
:103D200001214FF40B6002F003FA04F0020018B115
:103D3000D9208DF8000002E0D8208DF800006A46F6
:103D4000012140F23D7002F0F3F904F0040018B1D3
:103D5000012000F069F802E0002000F065F804F0AE
:103D6000100018B10120FFF707FF02E00020FFF765
:103D700003FF44F008001549488101F0C5FD00200B
:103D80001249887304F0400018B10846807B801DFA
:103D9000887304F4C07020B10C48807B801D0B49EF
:103DA000887304F0140020B10848807B1030074964
:103DB000887304F0030020B10448807B001D034990
:103DC000887300203EBD000009E3CA02E80100201C
:103DD0003EB504466CB10EA1D1E900208968CDE959
:103DE000002002916A4609214FF4976002F0A0F981
:103DF0003EBD0AA2D2E900109268CDE9010200910D
:103E00006A4609214FF4976002F092F9F0E700004A
:103E1000B8AAB38DB4980D355D000000B8AAAAAA5F
:103E2000B088C3C5C700000038B5044664B1C020DF
:103E30008DF80000C2208DF80100C4208DF802002A
:103E4000C6208DF8030004E08B2204216846FCF7AD
:103E5000F3FB6A46042140F6982002F069F901F06C
:103E600053FD38BD10B5C8234FF48062024940F6B7
:103E7000F63001F0DDFB10BDDC8700082DE9F04FC6
:103E80008DB00746884615469946DDE9166B002435
:103E9000002030806B49887B5A4605A901F094FCCC
:103EA00018B1601E0DB0BDE8F08F6648807A00F052
:103EB0001400002867D09DF8140000069DF8151026
:103EC00040EA01409DF8161040EA01209DF81710C5
:103ED000084328609DF8180000069DF8191040EA74
:103EE00001409DF81A1040EA01209DF81B1008437C
:103EF00068609DF81C0000069DF81D1040EA014016
:103F00009DF81E1040EA01209DF81F100843A8608C
:103F10009DF8200000069DF8211040EA01409DF820
:103F2000221040EA01209DF823100843E86004F1C4
:103F30001000C4B228680014019068680014029050
:103F4000A86800140390E8680014049001984043A6
:103F5000029901FB0100039901FB0100049901FB97
:103F6000010ABAF1706F02DBBAF1885F05DD01F07A
:103F7000CBFC00203080401E94E7B6F9000040F4EE
:103F80008070308000BF2F48807A00F0400020B35E
:103F900005A9601C085C095D40EA012000B2A8F890
:103FA000000005A9E01C095C05AAA01C105C41EA00
:103FB000002000B2A8F8020005A9601D095C201DC0
:103FC000105C41EA002000B2A8F80400A01DC4B2B1
:103FD000B6F9000040F0080030801A48408900F42B
:103FE000C07008B305A9601C085C095D40EA0120A7
:103FF00000B2388005A9E01C095C05AAA01C105C71
:1040000041EA002000B2788005A9601D095C201DEE
:10401000105C41EA002000B2B880A01DC4B2B6F91D
:10402000000040F0700030800648807A00F0030005
:1040300018B105A90819FFF7FFFC484600F08AFFF0
:1040400000202FE7E801002070B588B0064601A8DF
:1040500001F042F9BDF804000021C90341EA5045CE
:10406000C4034448007A00F0030056F8200005908D
:104070004048007A00F0040010B1059840420590D5
:104080003C48007AC0F3C10056F820000690394839
:10409000007A00F0200010B10698404206903548A2
:1040A000007AC0F3811056F820000790314800894B
:1040B00000F4807010B10798404207900598C1172E
:1040C000A0FB042301FB043100FB0510810041EA41
:1040D000927005900698C117A0FB042301FB0431E0
:1040E00000FB0510810041EA927006900798C11705
:1040F000A0FB042301FB043100FB0510810041EA11
:10410000927007900598000E8DF808000598000C35
:104110008DF809000598000A8DF80A000598C0B2CC
:104120008DF80B000698000E8DF80C000698000C18
:104130008DF80D000698000A8DF80E000698C0B2A2
:104140008DF80F000798000E8DF810000798000CEE
:104150008DF811000798000A8DF812000798C0B278
:104160008DF8130002AA0C214FF4257001F0E0FF36
:1041700008B070BDE801002030B585B0044616A235
:1041800007CA02AB07C3C82C03DD4FF0FF3005B0F0
:1041900030BDC82090FBF4F0401E85B2280A8DF88F
:1041A0000000E8B28DF801006A46022140F21620B4
:1041B00001F0BEFF10B14FF0FF30E8E702AA0C217A
:1041C00040F6C12001F0B4FF10B14FF0FF30DEE740
:1041D000044884810020DAE7FEF2ABC4AAF1DFDFF5
:1041E000BBAFDFDFE80100201FB504464848007A76
:1041F00000F0030054F8200001904548007A00F0D8
:10420000040010B10198404201904148007AC0F387
:10421000C10054F8200002903D48007A00F02000D0
:1042200010B10298404202903948007AC0F38110E0
:1042300054F8200003903648008900F4807010B1D3
:104240000398404203903349019880FB0101800F9D
:1042500040EA810001902F49029880FB0110820002
:1042600042EA917002902B49039880FB0110820072
:1042700042EA917003900198000E8DF800000198B9
:10428000000C8DF801000198000A8DF802000198D9
:10429000C0B28DF803006A4604214FF4747001F037
:1042A00047FF18B14FF0FF3004B010BD0298000E68
:1042B0008DF800000298000C8DF801000298000AA9
:1042C0008DF802000298C0B28DF803006A460421FE
:1042D0004FF4757001F02CFF10B14FF0FF30E3E7A1
:1042E0000398000E8DF800000398000C8DF8010073
:1042F0000398000A8DF802000398C0B28DF80300FD
:104300006A4604214FF4767001F012FFCCE70000FA
:10431000E801002009E3CA0210B586B0044647A0B0
:104320000068039046A00068029046A000680190D3
:1043300045A00068009004F0030003A9085C8DF814
:10434000140003A8C4F3C101405C8DF8150003A854
:10435000C4F38111405C8DF8160004F0030002A93B
:10436000085C8DF8100002A8C4F3C101405C8DF810
:10437000110002A8C4F38111405C8DF8120005AA57
:10438000032140F2264001F0D3FE18B14FF0FF3078
:1043900006B010BD04AA032140F22A4001F0C8FE75
:1043A00010B14FF0FF30F3E70198059000980490AA
:1043B00004F0040058B19DF8140040F001008DF89D
:1043C00014009DF8100040F001008DF8100004F07A
:1043D000200058B19DF8150040F001008DF815003F
:1043E0009DF8110040F001008DF8110004F4807078
:1043F00058B19DF8160040F001008DF816009DF8A8
:10440000120040F001008DF8120005AA03214FF4BC
:10441000886001F08DFE10B14FF0FF30B8E704AABC
:10442000032140F2314001F083FE10B14FF0FF3024
:10443000AEE7064804810020AAE700004CCD6C00DE
:104440000CC92C003656760026466600E80100208E
:10445000F8B505460E464FF47A7095FBF0F000FB78
:1044600006F4200E8DF80000200C8DF80100200AC3
:104470008DF80200E0B28DF803006A4604214FF483
:10448000AE7001F055FEF8BD38B50446052094FB2A
:10449000F0F084B220128DF80000E0B28DF8010037
:1044A0006A4602214FF4AD7001F042FE38BD38B5C6
:1044B0000446052094FBF0F084B220128DF8000031
:1044C000E0B28DF801006A4602214FF4AC7001F0B1
:1044D0002FFE38BD38B504460020009004F00100DE
:1044E00020B19DF8000040F03000009004F0020080
:1044F00020B19DF8000040F00C00009004F0040092
:1045000020B19DF8000040F0030000906A460121B0
:104510004FF4A47001F00CFE38BD38B50446012CF0
:1045200001DA012402E0042C00DD0424601EC0B284
:1045300000906A46012140F24F1001F0F9FD38BDAC
:104540002DE9FC4706460F4606F0070010B1B7F507
:10455000C86F03DD4FF0FF30BDE8FC87384603F03D
:10456000D5FE8146594903F087FD8046684600F034
:104570008DFE9DF80000022806D0042816D00828D9
:1045800026D0102848D135E04FF08D41404603F049
:1045900005FF814603F082FE84B24D49404603F098
:1045A000FDFE814603F07AFE85B238E04FF08C4183
:1045B000404603F0F3FE814603F070FE84B24549A5
:1045C000404603F0EBFE814603F068FE85B226E02C
:1045D0004FF08B41404603F0E1FE814603F05EFE62
:1045E00084B23D49404603F0D9FE814603F056FEB1
:1045F00085B214E04FF08A41404603F0CFFE814679
:1046000003F04CFE84B23549404603F0C7FE8146B4
:1046100003F044FE85B202E04FF0FF309CE700BF9C
:1046200020128DF80400E0B28DF8050028128DF8F4
:104630000600E8B28DF8070006F00100A0B101AA5B
:1046400002214FF4EA7001F073FD10B14FF0FF301A
:1046500082E70DF1060202214FF4927001F068FD2D
:1046600010B14FF0FF3077E706F00200A0B101AAC9
:1046700002214FF4EC7001F05BFD10B14FF0FF3000
:104680006AE70DF1060202214FF4947001F050FD2B
:1046900010B14FF0FF305FE706F00400A0B101AAAF
:1046A00002214FF4EE7001F043FD10B14FF0FF30E6
:1046B00052E70DF1060202214FF4967001F038FD29
:1046C00010B14FF0FF3047E7002045E700004843B6
:1046D000000040460000C045000040450000C044C6
:1046E00038B50446052094FBF0F085B228128DF809
:1046F0000000E8B28DF801006A4602214FF4EF7025
:1047000001F016FD38BD38B50446052094FBF0F0E5
:1047100085B228128DF80000E8B28DF801006A46D3
:1047200002214FF4ED7001F003FD38BD00BF054AD2
:10473000128802F04002002AF9D0C2B2014B1B1DC0
:104740001A807047003801407CB505462849496801
:10475000087801AB04220D21FDF75FFC08B10720AA
:104760007CBD9DF80700C0F301109DF8041001F016
:10477000E00140EAE1008DF800009DF80700C0F379
:1047800081009DF8051001F0E00140EAE1008DF89C
:1047900001009DF8070000F003009DF8061001F0ED
:1047A000E00140EAE1008DF8020000241CE01DF861
:1047B000040018B9002045F8240013E00D4845F81E
:1047C000240006E055F824000B4903F0E7FD45F806
:1047D00024001DF80400401EC0B20DF8040000289B
:1047E000F0D100BF601CC4B2032CE0DB0020B7E7AF
:1047F000180000207B14AE3E1D5A843F2DE9F04F77
:1048000087B005460C46914601208DF81000002027
:104810008DF81100FE4A1268917CFD4A52681078AA
:1048200004AB0222FDF79FFC20B14FF0FF3007B030
:10483000BDE8F08FC820FFF753F900208DF8100075
:10484000F34A1268D17BF24A5268107804AB012215
:10485000FDF789FC10B14FF0FF30E8E7EC4A126831
:104860005179EB4A5268107804AB0122FDF77BFCCA
:1048700010B14FF0FF30DAE7E54A1268917CE44A64
:104880005268107804AB0122FDF76DFC10B14FF0B7
:10489000FF30CCE7DE4A1268D17DDD4A52681078DD
:1048A00004AB0122FDF75FFC10B14FF0FF30BEE713
:1048B000D74A12681179D64A5268107804AB01229F
:1048C000FDF751FC10B14FF0FF30B0E70C208DF830
:1048D0001000CF4A12681179CD4A5268107804ABA3
:1048E0000122FDF740FC10B14FF0FF309FE70F2091
:1048F000FFF7F6F8C648806A407A8DF81000C44A7F
:1049000012689178C24A5268107804AB0122FDF710
:104910002AFC10B14FF0FF3089E7BD48806A007A69
:104920008DF81000BA4A12685178B94A5268107866
:1049300004AB0122FDF717FC10B14FF0FF3076E712
:10494000B9F1000F07D0B248806A807A40F0E000E9
:104950008DF8100004E0AE48806A807A8DF810006F
:10496000AB4A12689179AA4A5268107804AB0122C6
:10497000FDF7F9FB10B14FF0FF3058E7B9F1000F28
:1049800007D0A348806AC07A40F0E0008DF810009C
:1049900003E0A048C07A8DF810009D4A1268D179D2
:1049A0009B4A5268107804AB0122FDF7DCFB10B182
:1049B0004FF0FF303BE7B9F1000F02D0C820FFF7FE
:1049C0008FF840208DF81000914A12681179904AB2
:1049D0005268107804AB0122FDF7C5FB10B14FF00F
:1049E000FF3024E778208DF81000894A1268517949
:1049F000874A5268107804AB0122FDF7B4FB10B16E
:104A00004FF0FF3013E783498889FFF769F80020EA
:104A10008DF810007E4A126851797D4A52681078EC
:104A200004AB0122FDF79FFB10B14FF0FF30FEE613
:104A3000774A1268917A764A5268107804AB02225B
:104A4000FDF7EBFA10B14FF0FF30F0E69DF81100E2
:104A50009DF8101040EA012B0C209BFBF0F0C6B231
:104A60000020A86068602860A060606020608246C6
:104A700065E0674A1268D17A654A5268107804ABDB
:104A80000C22FDF7CAFA10B14FF0FF30CFE69DF8C7
:104A900011009DF8101040EA012000B2ADF80800A6
:104AA0009DF813009DF8121040EA012000B2ADF805
:104AB0000A009DF815009DF8141040EA012000B28C
:104AC000ADF80C00BDF90810206808442060BDF95D
:104AD0000A10606808446060BDF90C10A0680844C2
:104AE000A0609DF817009DF8161040EA012000B262
:104AF000ADF800009DF819009DF8181040EA01205B
:104B000000B2ADF802009DF81B009DF81A1040EAB3
:104B1000012000B2ADF80400BDF900102868084477
:104B20002860BDF90210686808446860BDF9041087
:104B3000A8680844A8600AF1010000F0FF0AB24525
:104B400097DB3448D0F800C02868C117090441EA4F
:104B500010410704624600233846FBF794FB3246B7
:104B60000023CDE90201FBF78EFB28602948D0F82D
:104B700000C06868C117090441EA10410704624691
:104B800000233846FBF77FFB32460023CDE90201C4
:104B9000FBF779FB68601F48D0F800C0A868C11710
:104BA000090441EA10410704624600233846FBF736
:104BB0006AFB32460023CDE90201FBF764FBA860E3
:104BC0001448D0F804C02168C817000440EA11480E
:104BD0000F046246002338464146FBF754FB324639
:104BE0000023CDE90201FBF74EFB20600948D0F815
:104BF00004C06068C117090441EA10410704624615
:104C000000233846FBF73FFB3246002304E0000058
:104C100018000020B4870008CDE90201FBF733FB40
:104C200060601148D0F804C0A068C117090441EAC7
:104C300010410704624600233846FBF724FB324646
:104C40000023CDE90201FBF71EFBA060A06800284D
:104C500004DDA068A0F58030A06003E0A06800F546
:104C60008030A0600020E2E5B48700082DE9FC5FF9
:104C700006460F4600253D494968087801AB0322E6
:104C80000D21FDF7CAF910B10720BDE8FC9F9DF882
:104C9000040000F01F008DF804009DF8050000F0EE
:104CA0001F008DF805009DF8060000F01F008DF82C
:104CB0000600002456E056F8240057F82410A0EB14
:104CC000010BBBF1000F01DB594601E0CBF1000104
:104CD000084603F003FB4FF08F41009003F0CCF93E
:104CE000814601A8005D68B32149086803F00EFB06
:104CF000834659461F4803F0BFF9804604E01E4929
:104D0000404603F04BFB804601A8005D401EC0B248
:104D100001A908550028F2D14146484603F0ACF9F4
:104D200083464FF07E5103F041FC82462AF0004B4F
:104D30000F488169584603F0FDFB12D20120A040C4
:104D400005430EE00A480169484603F0F3FA05D32B
:104D500007484169484603F0EDFB02D20120A0401C
:104D60000543641C032CA6DB28468EE718000020B0
:104D7000B487000800B04C4554E3853F10B50446A5
:104D8000204600F00FF80346E01C00F00BF843EA61
:104D9000C00083B2A01D00F005F843EA801083B282
:104DA000184610BD014691F90020002A01DD0020BF
:104DB0001EE091F90020002A01DA042018E091F9A0
:104DC0000120002A01DD012012E091F90120002AD2
:104DD00001DA05200CE091F90220002A01DD022011
:104DE00006E091F90220002A01DA062000E00720FF
:104DF000704700008CB0082540F23A7600BF00BF33
:104E000000BF4FF4A060FDF719FA444801F08CFA96
:104E1000FEF744FEFCF790FEFCF70CFEFDF780F871
:104E200000F0E4F940F2CF2140F2CF70FDF7D0FC62
:104E300000214FF6FF70FCF7ABFC002140F63F303D
:104E4000FDF736FD40F2E73140F29F50FDF7F2FDED
:104E500062E00020FCF70CFE0446012C00D12D2658
:104E6000022C00D19126032C00D1F526A6F1FA00E0
:104E700002F076FD07462A4A2A4B02F089FD0246D7
:104E80000B46CDE9000128A0FBF722FA31464FF08E
:104E90008040FEF720F808AA09A90AA800F094F8B3
:104EA00020BB05AA06A907A8FCF76CFE02AA03A965
:104EB00004A8FCF78FFE0A99084603F06FF80A90E1
:104EC0000999084603F06AF809900899084603F022
:104ED00065F80890142D07D100BF00BF00BF002067
:104EE0000A90099008900025681CC5B2DDF824904E
:104EF000DDF828A0484603F025F807463A460B4659
:104F00000EA0FBF7E5F9504603F01CF807463A46B9
:104F10000B460DA0FBF7DCF99BE7000020A1070082
:104F20000AD7A3703D0AC73FB6E6BBFAB6C8CAFDAA
:104F30003A25332E32660D0A00000000583D253315
:104F40002E32660D0A000000593D25332E32660DC3
:104F50000A0000007047000070B50446002624F0E7
:104F60000104184890F8240008B1002070BD1548CD
:104F7000807A10B94FF0FF30F8E71248057C807A4C
:104F80002040104908740846007CA04202D04FF02F
:104F9000FF3600E0002614B90A48007D18B1012050
:104FA00001F054F902E0002001F050F93CB100F0AA
:104FB000ABFC20B1034805744FF0FF30D6E7304614
:104FC000D4E70000180000202DE9F04F99B0044606
:104FD0000D4616464FF07E574FF000084FF000097F
:104FE0004FF0000A12A813A918AB0EAACDE90010C1
:104FF00014A916A8FEF742FF18B1012019B0BDE8A8
:10500000F08FBDF84C0000F4807000287ED00E9820
:1050100003F064F983464FF09D4103F02DF80746F5
:105020000F9803F05BF983464FF09D4103F024F89D
:105030008046109803F052F983464FF09D4103F0EB
:105040001BF88146119803F049F983464FF09D41C2
:1050500003F012F8824639464FF0804003F09EF983
:105060004946059003F09AF9414607904FF04040B9
:1050700003F094F95146059003F090F906900799D2
:1050800002F08CFF834602F05DFFCDE90801FEF7D8
:10509000CBF94FF06632544BCDE90A0102F078FCAF
:1050A000CDE90C0102F022FA206049464FF0804021
:1050B00003F074F94946029003F070F941460490F8
:1050C0004FF0404003F06AF94146029003F066F960
:1050D0000390049903F06AFA83464FF07E5102F080
:1050E0005DFF059002F02EFFCDE9080139464FF033
:1050F000804003F053F94146039003F04FF94946CD
:1051000004904FF0804003F049F900E068E0514618
:10511000039003F043F98346049902F03FFF0590A2
:1051200002F010FFCDE90601DDE90823FEF7C4FB1C
:105130004FF066322C4BCDE90A0102F029FCCDE993
:105140000C0102F0D3F928605146504603F026F9CD
:1051500049460490484603F021F9414603904046F1
:1051600003F01CF939460190384603F017F9009016
:10517000019902F013FF0290039903F017FA834696
:10518000049903F013FA059002F0DCFECDE9080162
:105190005146384603F002F949460490404603F070
:1051A000FDF80390049902F0F9FE4FF0804105905C
:1051B00003F0F4F8834602F0C5FECDE90601DDE90F
:1051C0000823FEF779FB4FF06632074BCDE90A0161
:1051D00002F0DEFBCDE90C0102F088F9306001E05D
:1051E00002200BE7002009E766A64C4070B50024BA
:1051F000FCF778FD00F024F9002840D1782000F079
:105200002FFFC4B20CB1012070BD7820FFF7A4FEBF
:10521000C4B20CB10220F7E7642000F0D3FEC4B2A0
:105220000CB10320F0E7FEF71DFEC4B20CB1042060
:10523000EAE71548FFF7A2FD0546FFF76DF8C4B28F
:105240000CB10520E0E740F27310FEF7B3FCC4B2E6
:105250000CB10620D8E76420FEF78EFFC4B20CB173
:105260000720D1E700F0A7FF04460CB10820CBE7E8
:10527000012000F0A3FDC4B21CB10920C4E70A203C
:10528000C2E70020C0E700004400002001461148AA
:10529000407A30B1012807D0022808D003280CD169
:1052A00008E0022008700BE00420087008E00820E5
:1052B000087005E01020087002E04FF0FF307047E2
:1052C00000BF0448C07C18B108784006000E087082
:1052D0000020F4E71800002001461348407A30B15E
:1052E000012808D002280AD0032810D10BE04FF47F
:1052F000804008800EE041F69C7008800AE04FF480
:105300008050088006E04FF40060088002E04FF013
:10531000FF30704700BF0448C07C10B108884010BF
:1053200008800020F5E70000180000200146024830
:10533000007C0870002070471800002001460F48CC
:10534000007A30B1012807D0022809D003280FD1F4
:105350000AE0FA2008800EE04FF4FA7008800AE0B4
:105360004FF47A70088006E04FF4FA60088002E09B
:105370000020088000BF00BF0020704718000020F8
:1053800001460E48007A30B1012807D0022808D023
:1053900003280CD108E00A4808600BE009480860BF
:1053A00008E00948086005E00848086002E04FF09E
:1053B000FF30704700BF0020FBE70000180000200E
:1053C00000000343000083423333034233338341FD
:1053D00001461248C07A082817D2DFE800F0170407
:1053E000070A0D101318BC20088013E06220088003
:1053F00010E02A2008800DE0142008800AE00A202E
:10540000088007E00520088004E000BF00BF0020FE
:10541000088000BF00BF0020704700001800002077
:105420000146064890F8240010B14FF0FF30704755
:105430000248C08908800020F9E700001800002019
:105440001CB580208DF80000654A1268917C644A82
:10545000526810786B460122FCF785FE10B14FF0C0
:10546000FF301CBD6420FEF73BFB00208DF80000E0
:105470005B4A1268917C5A4A526810786B46012246
:10548000FCF771FE10B14FF0FF30EAE7544A1268A2
:10549000917D534A526810786B460622FCF7BDFD99
:1054A00010B14FF0FF30DCE79DF80500C007400F5A
:1054B0009DF8031001F0010140EA41009DF8011040
:1054C00001F0010140EA010494B1012C03D1012152
:1054D0004348C17431E0022C03D100214048C1741B
:1054E0002BE021463FA0FAF7F3FE4FF0FF30B8E77C
:1054F0003B4A1268D1783A4A526810786B460122CA
:10550000FCF78BFD10B14FF0FF30AAE79DF80000CB
:1055100000F00F042CB93D48FAF7DAFE4FF0FF30E7
:105520009FE7042C06D13AA0FAF7D2FE01212C48BD
:10553000C17402E000212A48C174FF212848817209
:10554000FF2027490872FF2125484172C1724FF69A
:10555000FF71C181FF21017481740121017380F801
:105560002210002180F8231041750175163001606A
:1055700041608160163880F8241080F82510C184BD
:105580004FF4FA6000F062FC10B14FF0FF3068E7B2
:10559000022000F02BFB10B14FF0FF3061E72A2012
:1055A00000F0CEFC10B14FF0FF305AE7322000F08F
:1055B00009FD10B14FF0FF3053E70020FFF7CCFC9E
:1055C00010B14FF0FF304CE7002000F051FB10B15C
:1055D0004FF0FF3045E7002000F042FD002040E79B
:1055E00018000020556E737570706F7274656420BA
:1055F000736F6674776172652070726F647563741F
:10560000207265762025642E0A000000949500081B
:1056100048616C662073656E736974697669747924
:10562000207061727420666F756E642E0A0000002F
:105630002DE9F04385B005460E4690469946294827
:1056400090F8250020B14FF0FF3005B0BDE8F083A1
:1056500016B94FF0FF30F8E7002423E0281B10288C
:1056600001DD102000E0281B87B2321939462046A0
:1056700000F05EFD10B14FF0FF30E6E701AA3946B9
:10568000204600F001F910B14FF0FF30DDE730198E
:105690003A4601A9FAF7A4FF10B16FF00100D4E770
:1056A000E01984B2AC42D9DB4FEA28208DF8000023
:1056B00008F0FF008DF801000A4A1268917E094A3D
:1056C000526810786B460222FCF74DFD10B14FF086
:1056D000FF30BAE70121034880F82510A0F8269092
:1056E0000020B2E71800002038B50446282C02DD5F
:1056F0004FF0FF3038BDDCB9002000F0EBFB00209C
:105700008DF8000007208DF801002E4A1268917C68
:105710002C4A526810786B460222FCF724FD10B127
:105720004FF0FF30E6E70021264801750020E1E751
:10573000012000F0CFFB20208DF80000012C06D1C5
:1057400000208DF80100052000F0FAFB17E0052C81
:1057500006DC01208DF80100052000F0F1FB0EE0D1
:10576000142C06DC02208DF801000A2000F0E8FB72
:1057700005E003208DF80100142000F0E1FB9DF806
:105780000100072101EB8010C0B28DF801000D4A25
:105790001268917C0B4A526810786B460222FCF723
:1057A000E2FC10B14FF0FF30A4E7082105488172F8
:1057B00000210173012101750020FFF7CDFB0020BE
:1057C00098E7000018000020F8B504460F4616467A
:1057D0002C4890F8240010B94FF0FF30F8BD29484C
:1057E000807A10B94FF0FF30F8E7264A1268917AB4
:1057F000244A526810786B460222FCF70EFC10B166
:105800004FF0FF30EAE79DF801009DF8001040EAF4
:105810000125A54203DA00203070401EDEE719485A
:1058200040684088B5EB600F17DD164A1268517C5E
:10583000144A526810786B460122FCF7EEFB10B157
:105840004FF0FF30CAE79DF8000000F0100020B1D3
:1058500000F05AF86FF00100C0E7E2B2094B1B6894
:10586000D97A084B5B6818783B46FCF7D6FB10B139
:105870004FF0FF30B2E795FBF4F0401E307000208F
:10588000ACE7000018000020F8B504460D461646A7
:1058900016B94FF0FF30F8BD1A48807A10B94FF0B2
:1058A000FF30F8E720128DF80000E0B28DF801001B
:1058B0009DF801002844134949684989884202DD5E
:1058C0004FF0FF30E7E70F4A1268117E0D4A526829
:1058D00010786B460222FCF746FC10B14FF0FF3007
:1058E000D9E7EAB2074B1B68597D064B5B6818780D
:1058F0003346FCF792FB10B14FF0FF30CBE70020AE
:10590000C9E700001800002008B57048807A10B977
:105910004FF0FF3008BD002000906C4A1268D17B28
:105920006A4A526810786B460122FCF71CFC10B1E1
:105930004FF0FF30EEE7654A12685179634A5268CA
:1059400010786B460122FCF70EFC10B14FF0FF30CF
:10595000E0E75E4A126811795C4A526810786B463B
:105960000122FCF700FC10B14FF0FF30D2E757489E
:1059700090F82400002853D00C200090534A12685D
:105980001179524A526810786B460122FCF7EBFB02
:1059900010B14FF0FF30BDE73220FEF7A1F8C02074
:1059A00000904A48807A00F0010020B19DF8000084
:1059B00040F020000090454A12681179434A52682D
:1059C00010786B460122FCF7CEFB10B14FF0FF3090
:1059D000A0E73E48407C10B10220009001E000208A
:1059E00000903A4A1268D17B384A526810786B4668
:1059F0000122FCF7B8FB10B14FF0FF308AE700201E
:105A00000090324A12685179304A526810786B46D9
:105A10000122FCF7A8FB002855D04FF0FF3079E7B2
:105A200004200090294A12681179284A5268107897
:105A30006B460122FCF797FB10B14FF0FF3069E78E
:105A40002248807C20B92148807A00F0010010B9FA
:105A50004020009001E0602000901C4A12681179FB
:105A60001A4A526810786B460122FCF77CFB10B191
:105A70004FF0FF304EE73220FEF732F81348407CFB
:105A800010B10120009001E0002000900F4A126840
:105A9000D17B0E4A526810786B460122FCF763FBFB
:105AA00010B14FF0FF3035E7084A12685179074AC4
:105AB00052681078054B10330122FCF754FB10B1EB
:105AC0004FF0FF3026E7002024E7000018000020F8
:105AD0002DE9F04F8DB083460F4602200C904248CE
